:020000022000DC
:1060000000000120BD620200E5620200E7620200BA
:10601000E9620200EB620200ED6202000000000093
:10602000000000000000000000000000EF6202001D
:10603000F162020000000000F3620200F56202005B
:106040004D8C0200F7620200FD9002008DB5020047
:10605000F7620200F7620200B98C0200F7620200E8
:10606000F7620200F7620200F7620200F7620200C4
:10607000F7620200F7620200F7620200F7620200B4
:10608000F76202002D780200F7620200F762020058
:10609000F7620200F7620200B9CD0200F762020067
:1060A000F7620200F7620200F7620200F762020084
:1060B000F7620200F762020000000000000000002A
:1060C000F7620200F7620200F7620200F762020064
:1060D000F7620200F7620200F762020000000000AF
:1060E00000000000000000000000000000000000B0
:1060F00000000000000000000000000000000000A0
:10610000000000000000000000000000000000008F
:10611000000000000000000000000000000000007F
:10612000000000000000000000000000000000006F
:10613000000000000000000000000000000000005F
:10614000000000000000000000000000000000004F
:10615000000000000000000000000000000000003F
:10616000000000000000000000000000000000002F
:10617000000000000000000000000000000000001F
:10618000000000000000000000000000000000000F
:1061900000000000000000000000000000000000FF
:1061A00000000000000000000000000000000000EF
:1061B00000000000000000000000000000000000DF
:1061C00000000000000000000000000000000000CF
:1061D00000000000000000000000000000000000BF
:1061E00000000000000000000000000000000000AF
:1061F000000000000000000000000000000000009F
:1062000010B5054C237833B9044B13B10448AFF3F0
:1062100000800123237010BDA82B00200000000087
:10622000ECEA020008B5034B1BB103490348AFF386
:10623000008008BD00000000AC2B0020ECEA02004A
:10624000A3F5803A704700BF174B002B08BF134BD4
:106250009D46FFF7F5FF00218B460F461348144A71
:10626000121A06F091FF0E4B002B00D098470D4BF1
:10627000002B00D098470020002104000D000D489D
:10628000002802D00C48AFF3008006F04BFF20003E
:10629000290003F04DFF06F031FF00BF00000800A9
:1062A000000000000000000000000120A82B0020DA
:1062B000AC3D002000000000000000000649074A35
:1062C000074B9B1A03DD043BC858D050FBDC02F09F
:1062D00089F9FFF7B9FF0000FCEB0200D82A002083
:1062E000A82B0020FEE7FEE7FEE7FEE7FEE7FEE75D
:1062F000FEE7FEE7FEE7FEE7704700BF00B583B0AC
:10630000044B0093044A402300F036F803B05DF8D4
:1063100004FB00BF1D630200C82B002002B32DE95F
:10632000F843114B114E8846144643F001090327E8
:106330000025224608EB0501002005F0D5FB0346A9
:106340001D444FF47A40E41A23B9337833B1C84777
:10635000013F06D001233370002CEAD1BDE8F88359
:1063600070473770BDE8F883E0DA0200C42B0020E4
:10637000704700BF05F096BCF0B595B000241D46EF
:106380000E460846174601F0C9FF3046234608224C
:10639000099505A91A9D08970D950A948DF82C402A
:1063A0000C9402F01FF89DF814308DF81140DDE9CF
:1063B000061003F00302012ACDE9020128D0022AC7
:1063C00004D0304601F0AEFF15B0F0BDBDF8165058
:1063D000C3F3C2038DF81030C5F389150827082DC3
:1063E0002C4628BF08243B4622460EA9304601F021
:1063F000F9FF2D1B214608AB02AA0EA8274400F086
:1064000019FD002DEBD1304601F08CFF15B0F0BD29
:10641000BDF81470059DC7F38312C3F3C2040EA91F
:106420003046920008238DF81040C7F3831701F01F
:10643000D9FFC5F3952508AB3A4628460EA9009327
:1064400002AB00F07FFC304601F06CFF15B0F0BDF0
:1064500008B5FFF78FFF0448042100F0F1FB034B60
:1064600001225A7108BD00BFE4EB0200D82A0020C7
:10647000064B074810B500221A7001F003FF0446CE
:1064800010B9044802F024F8204610BDD82C002092
:1064900040EB02001CDB020099B10E4B0E495B1A67
:1064A000DB0815D030B400220C4D02E001329342DB
:1064B0000BD035F822408442F8D151F8320030BC7C
:1064C0007047054951F830007047002030BC7047D4
:1064D00018467047E4EB020054EB0200A42B0020A6
:1064E000094B013903EBC00003290BD8DFE801F0A9
:1064F0000402080604207047022070474079704764
:10650000007970470020704754EB0200704700BFCD
:106510002DE9F0438C4CD4E901239A4285B060D038
:106520000023C4F81834BFF34F8FA568EAB2D31C18
:1065300004EB830114F82330580718D566680B78EC
:1065400003F00303012B42D0022B03D14B88023509
:1065500005EB9315EAB2D4F81804D31C04EB8301BD
:1065600028B9AE4239D914F823305B07E7D404EBDD
:1065700082026B1CD2680192DBB204EB830302F04F
:106580000302DB680293022A05F102062DD0012ADC
:1065900000F08D80D4F810543DB12B6828469B68DC
:1065A0009847EB681D68002DF7D16848684B69492A
:1065B000C01AC008000440F0020000F0D1F8D4E98D
:1065C0000130C01A18BF012005B0BDE8F0830B8868
:1065D0000235C3F383131D44BCE7A66005B0BDE8D4
:1065E000F083002005B0BDE8F083BDF806305A48BE
:1065F000C3F389184546502D28BF502565F38F13E6
:1066000005F10801ADF8063001F03EFE074600280E
:10661000C0D001F083FE002301A90822384601F012
:10662000ADFEF343DBB20133B5EB830F4FEA8309D1
:10663000F1B277D9A5EB0905033104EB81010823F9
:106640004A463846EDB201F099FE44492A4609F11E
:106650000803384601F092FE08F1030806EB98069D
:10666000D4F81834002B6AD1D4F8105465B1EB6813
:106670005A7928463946002A5DD02B681B6898470E
:10668000EB681D68002DF2D1384601F04BFE002367
:106690000DF103008DF8033000F034FFD4F8183406
:1066A00003B9A6609DF8030000F052FF87E7BDF82C
:1066B00004302948C3F38312062A28BF0622911CFE
:1066C00062F389138900ADF8043001F0DDFD07465F
:1066D00000283FF45FAF01F021FE0023082201A94A
:1066E000384601F04BFEBDF8043013F4707FB7D08C
:1066F0006FF00108A8EB05080825F1B203312B461D
:10670000042204EB8101384601F038FEBDF8042074
:10671000013608EB0603C2F383129A4205F1040521
:10672000EBD89DE703312A4604EB81010823384664
:1067300001F024FE90E71D68002D98D1A4E73846AB
:1067400001F0F0FD3BE700BFD82C00208CEB0200ED
:1067500054EB020004DB020040EB0200E42C0020BA
:106760002DE9F04F5F4C87B0002306460DF10B007A
:106770008DF80B300F4600F0C5FED4E9015303F548
:1067800080735B1B012B7DD804F21C4804F5836ADF
:1067900004F214491AE0BDF80E30C3F38913033331
:1067A000090C0BEB930B4846019101F053F9019949
:1067B000002839D04046C4F808B001F01FF9D4E9E8
:1067C000013202F58072D21A012A5CD801214046BA
:1067D00001F014F9504601F02DF9484601F02AF96C
:1067E000A368DAB2D11C04EB810014F8211001F087
:1067F000040C490728D404EB8202591CD268039286
:10680000C9B204EB810102F00302012AC96803F155
:10681000020B30D0022ABED000214846019101F07F
:1068200019F901990028C5D14046C6E743880EEB07
:106830009313DAB2D11C04EB810014F8211001F09B
:10684000040CBCF1000FD6D0017801F0030101293E
:106850000BD0022903F1020E02F10301E6D004EB92
:106860008100BCF1000FEFD1C5E702880233C2F30B
:1068700083121344DDE7BDF80C30C3F38313090C16
:106880009B4490E72B46DAB20332023305219DF890
:106890000B0044F82210636000F05AFE00211248F9
:1068A00001F082F880F31000F1006B1C01F0380158
:1068B000DBB2EDB204EB830341F0010100040335C8
:1068C00040EA164641EA8727DE6044F825702378BF
:1068D0001BB1FFF71DFE0028FBD1FFF717FE07B025
:1068E000BDE8F08FD82C0020F43000202DE9F04FC7
:1068F000644C87B0002306460DF10B008DF80B3079
:106900000F46904600F0FEFDD4E9015303F5807375
:106910005B1B022B7FD804F21C4904F5836B04F245
:10692000144A1BE0BDF80E20C2F389120332090C91
:1069300003EB92035046CDE9003101F08BF8019949
:1069400000283AD0009BA360484601F057F8D4E9EC
:10695000013202F58072D21A022A5DD8012148461E
:1069600001F04CF8584601F065F8504601F062F825
:10697000A368DAB2D11C04EB810014F8211001F0F5
:10698000040C490729D404EB8202591CD2680392F3
:10699000C9B204EB810102F00302012AC96803F1C4
:1069A000020331D0022ABDD000215046CDE900318A
:1069B00001F050F801990028C4D14846C5E7438842
:1069C0000EEB9313DAB2D11C04EB810014F8211002
:1069D00001F0040CBCF1000FD5D0017801F00301E7
:1069E00001290BD0022903F1020E02F10301E6D0C6
:1069F00004EB8100BCF1000FEFD1C4E70288023341
:106A0000C2F383121344DDE7BDF80C20C2F38312F6
:106A1000090C13448EE72B46DAB2033203334521C7
:106A20009DF80B0044F82210636000F091FDAB1C50
:106A3000DBB204EB830300211348C3F80C8000F0A1
:106A4000B3FF80F31000F1006B1C01F03801DBB2E2
:106A5000EDB204EB830341F041010004033540EA49
:106A6000164641EA8727DE6044F8257023781BB17B
:106A7000FFF74EFD0028FBD1FFF748FD07B0BDE84A
:106A8000F08F00BFD82C0020F43000202DE9F04F0B
:106A9000694C89B0002506460DF113001F468DF89C
:106AA00013508846039200F02DFDD4E9015303F5FD
:106AB00080735B1B032B00F2828004F21C4904F5F7
:106AC000836B04F2144A1BE0BDF81620C2F389124E
:106AD0000332090C03EB92035046CDE9013100F07B
:106AE000B9FF029900283BD0019BA360484600F003
:106AF00085FFD4E9013202F58072D21A032A5FD8E9
:106B00000121484600F07AFF584600F093FF5046B6
:106B100000F090FFA368DAB2D11C04EB810014F8F6
:106B200021C01CF0040F0CF0040128D104EB8202F8
:106B3000591CD2680592C9B204EB810102F003022C
:106B4000012AC96803F1020332D0022ABCD0002115
:106B50005046CDE9013100F07DFF02990028C3D1F4
:106B60004846C4E743880EEB9313DAB2D11C04EB1A
:106B7000810014F8211001F004010029D6D090F80A
:106B800000C00CF0030CBCF1010F0BD0BCF1020FE4
:106B900003F1020E02F1030CE4D004EB8C00002997
:106BA000EDD1C3E702880233C2F383121344DCE75A
:106BB000BDF81420C2F38312090C13448CE72B4652
:106BC000DAB20332043385219DF8130044F8221011
:106BD000636000F0BDFCAA1CEB1CDBB2D2B204EB7C
:106BE000830C04EB8202039B1448D3600021CCF891
:106BF0000C7000F0D9FE80F31000F1006B1C01F066
:106C00003801DBB2EDB204EB830341F081010004F3
:106C1000033540EA164641EA8821DE6044F8251033
:106C200023781BB1FFF774FC0028FBD1FFF76EFC43
:106C300009B0BDE8F08F00BFD82C0020F430002050
:106C400030B4154DD5F810140446002071B10B4630
:106C500001E01B6853B1DB681A798242F9D1013037
:106C60000A28F3D14FF0FF3030BC7047E368187149
:106C7000D5F810344BB1DA68E36812681A60D5F8B9
:106C80001034DB681C6030BC7047C5F81044E26803
:106C9000136030BC704700BFD82C002038B5084BBB
:106CA000D3F8104401251D704CB1E3685D71236871
:106CB00020465B689847E3681C68002CF5D138BD16
:106CC000D82C002030B5C38885B004460D461BBBC8
:106CD000217A05291ED0627A82B9134AA08852F817
:106CE000212003920021FFF7D7FB039A0F490346A7
:106CF000284605B0BDE8304000F028BFA088FFF767
:106D0000EFFB0B4B0B4953F82020284600F01EFFE9
:106D1000217AE2E705B030BD074A00920749084AE8
:106D2000284600F013FFD3E7F4DB020054DB020037
:106D3000D0DB020050DB020048DB020030DB020047
:106D400028DB02002DE9F04385B04FF0000C0C9CCD
:106D5000814694F80C8084F80CC00E4617461846FD
:106D600021461D46FFF7AEFF062F09D8DFE807F0E2
:106D7000042E343B444F1F004946204600F0E6FEF7
:106D80002B7A052B05D06B7A5BB92749204600F09A
:106D9000DDFE204600F0CEFE84F80C8005B0BDE894
:106DA000F083224A2249204600F0D0FEEDE7D6E9E2
:106DB0000413F2680393B3680291CDE900324946A7
:106DC000D6E90023204600F0C1FED9E732684946E3
:106DD000204600F0BBFED3E7D6E900234946204613
:106DE00000F0B4FECCE7B3680093D6E9002349462F
:106DF000204600F0ABFEC3E7D6E9023201920093D1
:106E0000D6E900234946204600F0A0FEB8E7D6E9BF
:106E10000321B3680291CDE900324946D6E9002347
:106E2000204600F093FEABE760DB020048DB020087
:106E300050DB0200082900D970472DE9F04F9B462E
:106E400083B000241B7B8BF80C400D460646594648
:106E5000104690460193DFF8D0902C4FFFF732FF99
:106E600005E0325D013400F071FE082C09D0A54226
:106E700039465846F5D84946013400F067FE082CDB
:106E8000F5D12349DFF8A490224C234F584600F057
:106E90005DFE4FF0000A0DE0D15D11F0970F08BFC5
:106EA0002E22214658460AF1010A00F04FFEBAF19F
:106EB000080F10D0554505D916F80A207E2AEBD9BF
:106EC0002E22EEE7494658460AF1010A00F03EFE3E
:106ED000BAF1080FEED198F80830052B02D098F8D7
:106EE000093063B90D49584600F030FE584600F0AD
:106EF00021FE019B8BF80C3003B0BDE8F08F084AEF
:106F00000849584600F022FEECE700BF64DB0200AF
:106F100070DB020074DB0200B1E9020060DB0200FA
:106F200048DB020050DB02006CDB02005CDB02008D
:106F300000B585B00346002101AA44F20100CDE965
:106F40000111039300F004F805B05DF804FB00BFE5
:106F500010B572B6FFF7A2FEFFF7DAFA0028FBD1F0
:106F6000104B114C1149E41AE408240444F00100C8
:106F7000FFF7F6FB0E4B1B68DB0700D500BE0D4983
:106F800044F00200FFF7ECFBBFF34F8F0A490B4BB5
:106F9000CA6802F4E0621343CB60BFF34F8F00BFB7
:106FA000FDE700BF54EB02008CEB020014DC020092
:106FB000F0ED00E020DC020000ED00E00400FA0546
:106FC000D0E90223D1E90201994208BF90422CBFC7
:106FD00001200020704700BF10B5044682B0002396
:106FE0000DF107008DF8073000F08CFA23692BB9FA
:106FF0004FF0FF324FF0FF33C4E902239DF8070042
:1070000000F0A6FAD4E90530984700230DF10700F7
:107010008DF8073000F076FA2369B3B1D4E90201A4
:107020004A1C08BFB0F1FF3F0FD0C01841F100016A
:10703000C4E902019DF8070000F08AFA06482146DB
:1070400001F06AFA012002B010BD9DF8070000F0BF
:107050007FFA002002B010BD40DC02002DE9F04FA5
:1070600087B0064600F0A0FB40B1AA4AD2E9003141
:1070700013F1807341F10001C2E900310021304673
:1070800000F0AEFBA44C60B3236853B3A34B256858
:107090001B7823B31DB3A24800F0B2FB9D4BA1495E
:1070A000D3E90023D1E90089121843F100034B45CD
:1070B00008BF424503D212F1807243F10003D5E9C3
:1070C00002018B4208BF824280F02081013108BF5B
:1070D000B0F1FF3F03D09448294601F01DFA002388
:1070E00023600121304600F07BFB002840F0F28055
:1070F0008E4805A900F0FAFB78B38C4D4FF0FF38AD
:107100004FF0FF390BE0002B00F0958005A92846D1
:1071100000F01CFC05A9284600F0E8FBE8B1037864
:10712000012B11D0022BEED17F4F384601F008FA27
:1071300030B1C0E90289384601F002FA0028F8D1DE
:10714000764B01221A70E1E741682368994200F00A
:10715000B680754801F0FEF9D8E7DFF8CC81704FB2
:10716000DFF8B091404601F0F1F9002859D0D0E99C
:107170000223591C08BFB2F1FF3F58D0216891B1DA
:107180002168D1E902018B4208BF82424CD22368B8
:10719000D3E90223013308BFB2F1FF3F03D02168D6
:1071A000404601F0B9F9404601F0CAF905463846B3
:1071B000AA68EB680392029300F022FBD9E900ABC6
:1071C000584BD3E900231AEB000A4BF1000B9B4507
:1071D00008BF9245DDE9023203D21AF1807A4BF101
:1071E000000BB2EB0A0163EB0B0301930091DDE9A5
:1071F0000001012871F100032ADBB0F5350F58D2E8
:107200004FF496030021384600F048FA00284AD08F
:107210000D2821D000234046236001F097F9002873
:10722000A5D12368002B6DD007B0BDE8F08F404694
:1072300001F086F996E74168D1E90223013308BFDE
:10724000B2F1FF3F3FF462AF374801F065F95DE707
:107250000021384600F0B8FA304B1B78002BD9D00B
:10726000384600F0CDFAD9E900232E49D1E900AB28
:10727000121843F100035B4508BF524503D212F1D7
:10728000807243F10003D5E902018B4208BF8242BC
:107290001CD2013108BFB0F1FF3FBBD029464046A8
:1072A00001F03AF9B6E7236863B1256007B0BDE89D
:1072B000F08F384600F0A4FA1D4A0244A0E70023EC
:1072C000236023E7304600F0BBF9EEE72846FFF7DE
:1072D00083FE9FE71248134D00F092FA0D4BD3E95D
:1072E0000089D5E9002318EB000849F10009994508
:1072F00008BF904503D218F1807849F10009C5E92B
:107300000089F5E6304600F09FF98DE72846FFF743
:1073100063FEE4E69831002018320020A0310020FE
:10732000E02A00201032002040DC0200FC31002066
:10733000FFFFB40010B5134B13491B68134882B00C
:1073400058220193082300F07BFA044610B120462E
:1073500002B010BD0E4A0F4801A900F011F9044611
:107360000028F4D10B48012100F014FA012319463A
:10737000094A084800F06CF9084B012220461A70AF
:1073800002B010BD3CDC0200A4310020FC31002022
:107390005D700200E02A0020FFFF7F00A031002086
:1073A0008AB130B4A1F101010368B1FA81F14FF063
:1073B000FF344FF0FF354909C3E90412C3E9024520
:1073C000002030BC70470720704700BF2DE9F04314
:1073D00083B00546002401A817460E468DF80440E8
:1073E00000F090F8D5E90223013308BFB2F1FF3F66
:1073F00007D09DF8040000F0ABF8204603B0BDE8CC
:10740000F0831D4800F0FCF91C4B1D49D3E9002313
:10741000D1E90089121843F100034B4508BF4245EA
:1074200025D3921943F10003C5E902239DF8040016
:1074300000F08EF82B69AF6103B12E61114801A9EC
:1074400000F016FA78B100244560047001A90D48D7
:1074500000F03CFA0028D1D0074800F0D5F92046CA
:1074600003B0BDE8F083042003B0BDE8F08312F15F
:1074700080726341D5E700BFE02A002098310020E8
:1074800010320020FC31002030B583B004460025C6
:1074900001A88DF8045000F035F8D4E90223013337
:1074A00008BFB2F1FF3F1BD04FF0FF324FF0FF3368
:1074B0009DF80400C4E9022300F04AF80F4801A92E
:1074C00000F0D6F948B101234460037001A90B48CC
:1074D00000F0FCF958B903B030BD042003B030BD52
:1074E0009DF8040000F034F8284603B030BD04488D
:1074F00000F08AF9284603B030BD00BFFC310020FF
:10750000E02A002070B4EFF3108472B60D4B9A6835
:10751000AAB90D490D4E01259D60D1F88050354026
:107520001D60C1F88060D1F884505D604FF0FF337A
:10753000C1F88430027004B962B670BC7047012390
:107540000370F8E7143D002000E100E0FC06FFBDF9
:10755000094B9A687AB170B910B4EFF3108172B622
:10756000064A1C6814605C685460986001B962B691
:107570005DF8044B70477047143D002000E100E0C7
:1075800070B5274C4379274E04EBC30546F82320FA
:107590002D79002D37D103680A88C3F8082590F9A2
:1075A00004308A78002B26DB03F1604303F5614346
:1075B0005201D2B283F8002390F90430002B07DB8C
:1075C000194903F01F0501225B09AA4041F8232055
:1075D0004279164B164D44F83200581B04EBC20496
:1075E000C008012300041349237140F00300FFF792
:1075F000B7F8002070BD104903F00F035201194481
:10760000D2B20A76D8E70A4B08480C49C01AC0081B
:10761000000440F00200FFF7A3F8082070BD00BF8F
:107620001C3200202432002000E100E09CEB02002C
:1076300054EB020070DC0200FCEC00E04CDC0200C9
:10764000036801221A607047036801225A6070477C
:10765000F0B404684FF480358D40C4F808530668D0
:1076600001F15004C6F84853A4000668A4B20027EC
:10767000375182B036590468019601F5A87122F09D
:107680007F42019E44F821200268C2F8445313B19E
:107690000368C3F8045302B0F0BC70472DE9F0470B
:1076A00004464FF4803600688E40C0F84863206876
:1076B000C0F80863206800EB81058A46D0F80415FD
:1076C000D5F84005C5F840150AF15005AD0027680A
:1076D000ADB24FF0000847F8058082B0401A7F59DC
:1076E000009720F07F40012822F07F479946009ABA
:1076F00041D02268D2F80455C2F844637A1B22F0C4
:107700007F42012A0AF5A87125D0226842F821702B
:107710002068D0F804557A1BC9F1FF13013A03F52C
:107720007F4322F07F42934211D342B1C0F84463B9
:1077300023680020C3F8046302B0BDE8F087013776
:1077400040F821702068D0F804359D42EED00D201D
:1077500002B0BDE8F08720680D4B013740F821707A
:1077600043F001034FF4806098472068D0F8043557
:107770009D42DBD0EBE7064A4FF4806042F0010205
:107780009047226842F8058052590192019AB0E769
:1077900090DC020002680223C2F8443311B102688F
:1077A000C2F80433704700BF0368D3F8040100B97E
:1077B0007047002282B0C3F80421D3F8043101934A
:1077C000019B012002B0704702684FF4803303FA36
:1077D00001F1C2F848130368C3F80813704700BFEB
:1077E00050318900036889B2585800B970470022A7
:1077F0005A5082B05B580193019B012002B0704740
:107800000368D3F80405704790F90430002B09DBB6
:107810005A090548403203F01F03012101FA03F31E
:1078200040F82230704700BF00E100E0024A034BFD
:1078300010681B68184700BF1C320020243200204B
:1078400099B110B4B2FBF3F403FB1424A4B244B90D
:10785000C0E9001484608281C38120465DF8044B36
:10786000704709205DF8044B70470E20704700BF39
:1078700030B482B050E8013F9DB2C4892544848968
:10788000A54228BF2D1B0489A54202BFBFF32F8F3D
:10789000002207E0C5EA030540E80154002CE9D1C5
:1078A0004FF001028DF803200193019B9DF8032006
:1078B0000B602AB10B880068184402B030BC7047D6
:1078C00002F0FF03184602B030BC70470A884B88AC
:1078D0009A4201D00020704750E8012FC2EA0242CC
:1078E00040E80123002BF7D10120704730B482B06B
:1078F00050E8023F1FFAA3F5C488A54202BFBFF3B8
:107900002F8F00220DE0C48925448489A54228BF19
:107910002D1BC3EA054540E80254002CE8D14FF086
:1079200001028DF803200193019B9DF803200B6059
:107930002AB14B880068184402B030BC704702F08E
:10794000FF03184602B030BC704700BF0A884B885E
:107950009A4201D00020704750E8022FC2EA22422A
:1079600040E80223002BF7D1012070474A09012388
:1079700001F01F0100EB820003FA01F100F022B8D0
:1079800001F01F0201234909934000EB8100D94314
:1079900000F026B84B0901F01F0150F82300C84041
:1079A00000F00100704700BF10B4034653E8000F19
:1079B0000A4643E8002494F0000FF7D15DF8044B29
:1079C000704700BF10B4034653E8002F42EA01009D
:1079D00043E8000494F0000FF6D15DF8044B7047C3
:1079E00010B4034653E8002F02EA010043E8000404
:1079F00094F0000FF6D15DF8044B704710B40346C5
:107A000053E8002F02EB010043E8000494F0000F5C
:107A1000F6D15DF8044B704710B4034653E8002FCD
:107A2000A2EB010043E8000494F0000FF6D15DF8EA
:107A3000044B704710B40346012253E8001F41EA8B
:107A4000020043E8000494F0000FF6D15DF8044B07
:107A5000704700BF10B40346002253E8000F00EA4D
:107A6000020143E8001494F0000FF6D15DF8044BD6
:107A7000704700BFB8B130B4D0E90112521A04689F
:107A8000D2B2531E2160DBB242B101680A685C1EAB
:107A9000551C0D601370E3B2FF2BF6D10368002074
:107AA000187130BC70470E20704700BFF0B583B02E
:107AB000044600250DF107008DF80750FFF722FD61
:107AC000D4E900311A688A4210D9511E1960216820
:107AD000A3680F6812F8015C0A79268AE068DB1B4C
:107AE000DBB29A4206FB050538BF0B719DF8070013
:107AF000FFF72EFD284603B0F0BD00BF30B50546A8
:107B000083B000230DF107000C468DF80730FFF716
:107B1000F9FC2A681368591C1160E9682A8A641AFA
:107B2000B4FBF2F41C709DF80700FFF711FD03B0E1
:107B300030BD00BF826842B110B504464369016898
:107B4000006998470023A36010BD70470EB400B5CC
:107B500082B0039921B104AB01AA019300F0ACF803
:107B600002B05DF804EB03B0704700BF2DE9F04FA1
:107B7000164683B0B142DDE90C920F4605469A469F
:107B8000C0F095800B464FF00108B3FBF6F39E4220
:107B900008F10108F9D9D04538BFD04612F00103E9
:107BA000019302D1B9F1000F5ED1AA68012403E06C
:107BB0000AF1FF3A06FB04F4BAF1010FF8D8B7FB5B
:107BC000F4F39E42F6D9DFF8ECA007E0B442B4FB30
:107BD000F6F31AD3AA681C46B7FBF3F31AF803B0FE
:107BE000BBF10A0F04FB137728D02B68511CA96046
:107BF00003F802B0D5E901329A42E7D32846FFF7ED
:107C000099FFB4FBF6F3B442E4D2019B9BB1B9F106
:107C1000000F10D02024C84509F1FF390BD2AB6802
:107C20002A68591CA960D454D5E901329A4214D269
:107C3000B9F1000FEFD103B0BDE8F08F511C2B68F4
:107C4000A9604FF00D019954D5E901329A42CCD385
:107C50002846FFF76FFFAA68C7E72846FFF76AFFC5
:107C6000B9F1000FD7D1E6E793071AD42024AA6808
:107C7000C84502F1010199D22B68A9609C54D5E94D
:107C800001329A4209F1FF3903D2B9F1000FEFD165
:107C90008CE72846FFF74EFFAA68B9F1000FE7D13D
:107CA00084E7BAF1000F0CBF30242024DFE74FF047
:107CB000010870E798DC0200002900F054822DE9E9
:107CC000F04FDFF8B8950C7885B0064690460D4623
:107CD0004FF00D0A10E00A2CB36800F0AD80326856
:107CE000591CB160D454D6E901329A4280F0A08088
:107CF0002C78002C00F087800135002C00F0838068
:107D0000252CE8D1294600270D4611F8012B2D2AF4
:107D100000F08880302A00F088802B2A7AD02A2A26
:107D200000F09980A2F13003092B4FF000040BD82A
:107D300004EB840402EB440415F8012FA2F1300394
:107D4000092BA4F13004F3D92E2A00F090800023EF
:107D500001E015F8012F02F0FB016829F9D0252A6E
:107D600000F07781583AD1B2202947D8202A45D847
:107D7000DFE812F0350144004400440044004400B0
:107D80004400440044004400440043011301440003
:107D900044004400440013014400440044004400F3
:107DA00044004400D20044004400A2004400940077
:107DB00044004400350101209842024638BF1A466B
:107DC0000292002C40F05081B80740F16E81002BE8
:107DD00040F04E821C46BBF1000FC0F20A827A07C7
:107DE00000F11A8207F00302022A00F0EA81CDE9CD
:107DF000004759460A223046FFF7B8FE01352C7875
:107E0000002C7FF479AF337B002B40F01C8105B050
:107E1000BDE8F08F0D4611F8012B2D2A47F004071D
:107E20007FF478AF47F001076EE747F002076BE792
:107E30003046FFF77FFE5BE73268591CB16002F8FD
:107E400003A0D6E901239342FFF449AF3046FFF780
:107E500071FEB36843E7D8F800301A1DC8F8002057
:107E60006A781C682E2A05F101057FF470AF6A78E4
:107E7000A2F13003092B05F101054FF000033FF695
:107E80006AAF03EB830302EB430315F8012FA2F162
:107E900030010929A3F13003F3D95CE7D8F80020B9
:107EA000111DC8F8001011683046CDE900470A22BC
:107EB000FFF75CFE0135A2E7D8F800301A1DC8F8BC
:107EC000002017F00107D3F800B040F0F080BBF1BC
:107ED000000F03D0584605F087F90746BC4240F230
:107EE0004381002C00F04081202205E0BC4200F0DC
:107EF0003B81002C00F03881B1683368481CB060C9
:107F00005A54D6E90130984204F1FF34EED330469A
:107F1000FFF710FE2022E9E7D8F80020131DC8F86B
:107F20000030B36831681768581C3022B060CA54FA
:107F3000D6E90123934280F0EF803268581C782103
:107F4000B060D154D6E901329A4280F0E0800F2F20
:107F500003D93B461B090F2BFCD84FF0805406E099
:107F60000F2C4FEA14137FF649AFB2681C46B7FBDB
:107F7000F4F319F803B0BBF10A0F04FB137754D0E4
:107F80003368511CB16003F802B0D6E901329A425D
:107F9000E6D33046FFF7CEFDE2E7D8F80020111D0A
:107FA000C8F80010D2F800B08BEAEB72A2EBEB72CB
:107FB000092A7FF700AFDFF8C8C201201146632904
:107FC000ACFB02E200F101004FEAD202F6DC98427B
:107FD000024638BF1A460292002C45D1F4E6D8F882
:107FE0000020111DC8F8001011683046CDE9004787
:107FF0001022FFF7BBFD013501E7D8F800301A1D4C
:10800000C8F800201C78B3680A2C00F0118132688F
:10801000591CB160D454D6E901329A42FFF4EEAE55
:108020003046FFF787FD0135E9E63368511CB16042
:1080300003F802A0D6E901329A42A1D33046FFF7F5
:1080400079FDB2689CE7304605B0BDE8F04FFFF718
:1080500071BDB3683168581CB060CA54D6E90132AA
:108060009A42DDD20135CAE6BBF1000F59DB7A072F
:1080700057D4B80702D5002B3FF4ADAEF9073FF552
:10808000AAAE94B120220299A142BFF4A4AEB16875
:10809000481CB06030684254D6E90101814204F1C5
:1080A000FF3480F0D480002CEDD1002493E69BF8BF
:1080B0000030002B00F0E080B0685F46CBF1010299
:1080C0000A2B02EB070B3CD0411CB16031680B540A
:1080D000D6E90130984226D217F8013F002BEFD1A4
:1080E0005C457FF68BAE202702E05C453FF486AE10
:1080F000B2683368511CB1609F54D6E901329A428C
:1081000004F1FF34F1D33046FFF714FDEDE73046BC
:10811000FFF710FDB2681AE73046FFF70BFDB368B2
:108120000BE7013CA5E730460292FFF703FD17F885
:10813000013F002BD4D0029AB0680A2B02EB070B48
:10814000C2D1411CB160316801F800A0D6E901102C
:108150008842B9D33046CDE90232FFF7EBFCDDE9C6
:108160000232B068B0E770479BF80040002C3FF443
:1081700045AE0A2CB0680ED03368421CB2601C5465
:10818000D6E90130984214D21BF8014F002C3FF47D
:1081900035AE0A2CF0D13368421CB26003F800A05F
:1081A000D6E901309842E7D33046FFF7C3FCB06808
:1081B000E2E73046FFF7BEFC1BF8014F002CD8D198
:1081C0001CE6002B7FF413AE8CB130220299A14241
:1081D000BFF40DAEB168481CB06030684254D6E9B7
:1081E0000101814204F1FF343BD2002CEED1002486
:1081F000FDE5B1684A1CB26032682D205054D6E9C2
:1082000001219142CBF1000BFFF4ECAD304603931A
:10821000FFF790FC039BE5E5B1684A1CB260326849
:108220002B205054D6E901219142FFF4DBADEDE75C
:108230003268591CB16002F803A0D6E901239342C9
:10824000FFF4E5AE3046FFF775FCB368DFE6304675
:108250000393FFF76FFC039B2022002C7FF413AFE6
:1082600023E730460393FFF765FC039B3022BCE70E
:10827000F9073FF5B0AD18E79B4631E798DC0200FF
:10828000CDCCCCCCFFF7F6BB2DE9F041058A03310C
:10829000043D4E198046B6FBF5F6FFF707FCA0B388
:1082A000F6B24FF48073013E0446C580C0F80080EA
:1082B00083802BD00346002508E06279AE4202F1AC
:1082C000010262713860C0F800801FD040461F462E
:1082D000FFF7ECFB013503460028EED16779791EE4
:1082E00017D02246013399421268FBD1D2F80080A0
:1082F0005FB12668002501E0344636682146013525
:108300004046FFF7FBFBAF42F6D800242046BDE80D
:10831000F08120682146FFF7F1FBF6E704300121E8
:10832000FFF76CBB2DE9F041012104460430FFF753
:1083300073FB10F0FF0301D0BDE8F0816779791E6F
:1083400016D02246013399421268FBD1D2F8008040
:10835000002FF1D02668002501E03446366821461A
:1083600001354046FFF7CAFBAF42F6D8BDE8F081C1
:1083700020682146BDE8F041FFF7C0BB2DE9F84376
:108380000546C6884079144606FB00F2043A04EB21
:10839000030C1F1D624538BFD41ABE428846B7FB86
:1083A000F6F106FB117002D801392D68FCD1371A9D
:1083B000A74228BF27469CB14FF000090430E41BB8
:1083C00028443A4608EB090104F0D0FEA642B9441D
:1083D0002D6837464FF0000028BF2746002CEDD10E
:1083E000BDE8F8832DE9F8430546C6884079144670
:1083F00006FB00F2043A04EB030C1F1D624538BF74
:10840000D41ABE428846B7FBF6F106FB117002D8BB
:1084100001392D68FCD1371AA74228BF27469CB1E5
:108420004FF0000904302918E41B3A4608EB090014
:1084300004F09CFEA642B9442D6837464FF0000078
:1084400028BF2746002CEDD1BDE8F88341DF7047F7
:10845000064A074B10B5002414701C60BFF35F8FF1
:108460000449054800F042F8204610BD3032002093
:1084700034320020B4DC02002832002000B583B082
:1084800000230DF107008DF80730FFF73BF8F1EE00
:10849000103A23F09F03E1EE103ABFF35F8F0B4BCE
:1084A0004022C3F884219DF80700FFF751F804F03B
:1084B0007DFC28B920BF40BF20BF03B05DF804FB9E
:1084C000FFF7C4FF03B05DF804FB00BF00E100E06C
:1084D00082680023936082681361826853618268B6
:1084E000D3608268536082681360704701600B68D4
:1084F00043604A68934204BF00234360704700BF53
:10850000436843B1026891680B44436052689342E8
:1085100004BF00234360704770B544680646206876
:108520000D4618B908E02468206828B1B3682946C8
:1085300098470028F7D120682860256070BD00BFEB
:108540004368186808B102681A6070474368186881
:10855000704700BF4368186818B908E00346006810
:1085600028B18142FAD10A681A6001207047704729
:10857000114910B4A1F5947205E052F833309842D5
:1085800038BF21460CD28C1AE30F03EBE4035B10D7
:10859000914202EBC304F0D808485DF8044B7047E1
:1085A00002D904F10802EEE76068044B5DF8044B61
:1085B000002808BF18467047F4E10200B8E0020046
:1085C000BFF34F8F0549064BCA6802F4E0621343BC
:1085D000CB60BFF34F8F00BFFDE700BF00ED00E0B1
:1085E0000400FA0538B5B44B1B68581C04BFB34BE4
:1085F0001B78062B05D1B24BB24A1B68C3F3042388
:108600001360AE4B1B78062B00F00181AA4B1B6850
:10861000591C04BFA94B1B78062B05D1AA4BAB4AAA
:108620001B68C3F342331360A44B1B78062B00F086
:10863000DB80A14B1B685A1C04BFA04B1B78062B88
:1086400008D14FF080430022C3F80C21C3F8102159
:10865000C3F83825994B1B78062B00F0A580964B64
:108660001A68551C28D09A4B062A1B682CD0994AA8
:10867000D2F8883043F47003C2F88830BFF34F8FCC
:10868000BFF36F8F8C4B1B68062B00F0D1804FF02F
:108690001023D3F80C22D10700F17081D3F8002207
:1086A000002AC0F24581D3F80432002BC0F2408189
:1086B000894B8A4A1A6038BD8049894B09781B6802
:1086C0000629D4D1C3F30313033B042B40F2CA8021
:1086D0004FF08052834BD2F80414C3F82015D2F81F
:1086E0000814C3F82415D2F80C14C3F82815D2F8CE
:1086F0001014C3F82C15D2F81414C3F83015D2F89E
:108700001814C3F83415D2F81C14C3F84015D2F865
:108710002014C3F84415D2F82414C3F84815D2F82D
:108720002814C3F84C15D2F82C14C3F85015D2F8FD
:108730003014C3F85415D2F83414C3F86015D2F8C5
:108740003814C3F86415D2F83C14C3F86815D2F88D
:1087500040145948C3F86C15D2F844140268C3F8A1
:108760007015541C00F0A280062A80D15E4B524A3C
:108770001B6812685D4903F04F03501C0B6077D0F3
:10878000062A7FF474AF4FF08043D3F80034DA0741
:108790007AD44F4B1B68033B042B5DD9544A1368B2
:1087A00043F48063136062E74D4B1B68C3F303130C
:1087B000033B042B3FF653AF4E4AD25C12B14E4AF4
:1087C000032111604D4AD35C002B3FF448AF4C4A63
:1087D0004C4C4D494D4B05201060012500203F2297
:1087E000256008601A603AE73D4B1B68C3F303132A
:1087F000033B042B3FF61DAF454AD35C002B3FF4EF
:1088000018AF444AD36823F08073D36011E7344B28
:108810001B68C3F30313033B042B3FF6F7AE3E4A3A
:10882000D35C002B3FF4F2AE3C4B3D4A1A60EDE6C0
:10883000274B1B68033B042B08D94FF010224FF045
:108840008043D2F80822C3F8582520E7354AD35C84
:10885000002B3FF41CAFF0E7334AD35C002B3FF40E
:1088600006AF9BE73149CB5C002B3FF47AAF2FE793
:10887000124B1B78062B7FF4FAAE4FF08043D3F8EF
:108880000034DB077FF5F3AE0B4B1B684FF08042E3
:108890006FF00101062BC2F800147FF4E8AE0C4B18
:1088A0001B68033B042B3FF679AFD5E7034B1B78DE
:1088B000062B3FF45BAFDAE630010010E00F00F06A
:1088C0002403001040350140440200103C050040E4
:1088D0003401001000ED00E0E82A00200090D003F1
:1088E000E80F00F000C0004058020010E40E004005
:1088F0003C1700400CE20200A00500400CE2020020
:10890000105600408856004018560040145600404B
:108910000CE20200F0ED00E00CE2020074C007403F
:108920000DF0ADBA04E20200FCE10200F4E1020045
:10893000214A0123C2F80435D2F80034002BFBD0C1
:108940004FF0102315211C4AC3F80012D2F800344E
:10895000002BFBD04FF010231521174AC3F8041247
:10896000D2F80034002BFBD000231349C2F80435A1
:10897000D1F80034002BFBD0FFF722FE0E4B012272
:10898000C3F80425D3F80024002AFBD04FF01021AF
:10899000094AD1F80C3223F00103C1F80C32D2F8A5
:1089A0000034002BFBD000230349C2F80435D1F872
:1089B0000034002BFBD0DFE700E0014010B568B9C0
:1089C0000E4CA368012262703BB1D3E90023002062
:1089D000A2609847A368002BF7D110BD0128FCD1F5
:1089E000064C2369A070002BF7D0D3E900230120A7
:1089F000226198472369002BF7D110BD383200203F
:108A000070B910B5074CA368012262703BB1D3E97D
:108A100000230020A2609847A368002BF7D110BD67
:108A2000704700BF3832002030B5012883B004D031
:108A3000032821D0B0B103B030BD294C00230DF183
:108A400007008DF80730FEF75DFD23786BB3E36810
:108A50009DF8070001330122E360A270FEF778FD64
:108A600003B030BD1F4B0122C3F88020BFF34F8FEE
:108A7000BFF36F8F03B030BD194C00F0B9F800237D
:108A80000DF107008DF80730FEF73CFDE368013B70
:108A9000E360E3681BB9144BD3F80054C5B19DF8EB
:108AA0000700FEF755FD03B030BD10486360A360BA
:108AB0002361E36000F090F804F078F960B10A4AAD
:108AC00001232370D2F80024002AC0D0A370BEE78F
:108AD00000F0A0F8A570E2E700F08AF8EFE700BF29
:108AE0003832002000E100E000000140BD890200B2
:108AF00030B585B0047845688DF80040D0E9024073
:108B0000064A074B039053F82130019552F8211083
:108B10008DF808406846984705B030BD4C320020BB
:108B20005032002030B585B0047845688DF800409B
:108B3000D0E90240064A074B039053F821300195D3
:108B400052F821108DF808406846984705B030BDAE
:108B50004C32002050320020F0B51A4B90F800C083
:108B6000194C1A4D91F81DE044F82C20074608696D
:108B700045F82C0003F80CE00C4616460FCC89B0E3
:108B80006D460FC594E80F0085E80F00CDF810C0C2
:108B9000BEF1000F0AD0002E0D4A694607F104000D
:108BA00008BF324600F058FE09B0F0BD002E094A59
:108BB000694607F10C0008BF324600F0AFFB09B070
:108BC000F0BD00BF203D0020503200204C3200207C
:108BD000F18A0200258B0200044A137923B901218E
:108BE00010609180184670478520704754320020ED
:108BF000074B1A68D20704D4C02283F8002301224D
:108C00001A604FF080430122C3F81825704700BF57
:108C100000E100E010B40B4B0B494FF08042002004
:108C20000224C2F8084383B018601B680193012333
:108C300001980B60D2F81834DB03FBD403B05DF865
:108C4000044B7047040100400C00004010B5174B66
:108C50001A6882B062B10021154A19601B68507908
:108C600000934FF080410123009CC1F8083398B174
:108C7000104B1A68BAB100221A601B6801934FF0BA
:108C8000804202210A4B0198C2F808131B68012098
:108C900002B0BDE810401847116853718847054B72
:108CA0001A68002AE7D102B010BD00BF00010040E1
:108CB0005432002004010040F0B585B0C84A0023BA
:108CC00001931168012900F0E7811E46C54B1A681F
:108CD000012A00F0D381C44B1A68012A00F0C08138
:108CE000C24B1A68012A00F0AD81C14B1A68012AF3
:108CF00000F09A81BF4B1A68012A00F08781BE4BB1
:108D00001A68012A00F05D81BC4B1A68012A07D05D
:108D1000BB4B1A68012A00F0CB81FEB905B0F0BD4B
:108D2000B84AD2F804231206F2D500221A60196854
:108D30000291196E0298012903F1600346F0800642
:108D40000CD11A601B6803934FF0A043039AD3F829
:108D500020250192C3F8202546F00046AA4F0024A2
:108D60000125A30003F180432E4203F5C0434FEADF
:108D700045050BD0D3F8100557F82420D3F810156B
:108D8000C0F30420C1F3014102B190470134082C23
:108D9000E7D1002EC2DA9C4C01254FF0A04694F991
:108DA0005000471C3DD0C0F3C20204AB1A4400F08F
:108DB000070312F80C2C05FA03F31A42C1B200F0B3
:108DC0003F002ED0830003F1A04305FA00FCD3F846
:108DD0000027D3F8007727F44037C3F80077C2F3B1
:108DE0000142D3F80077022A0CBF4FF4403E4FF403
:108DF000003E4EEA070E2718C3F800E7C6F820C564
:108E000097F9303054F823305BB18909032900F019
:108E10007181022A00F06B81032A02D1022900F03D
:108E2000698194F95100411C3DD0C0F3C20204ABEA
:108E30001A4400F0070312F80C2C05FA03F31A4247
:108E4000C1B200F03F002ED0830003F1A04305FA29
:108E500000FCD3F80027D3F8007727F44037C3F895
:108E60000077C2F30142D3F80077022A0CBF4FF417
:108E7000403E4FF4003E4EEA070E2718C3F800E7C5
:108E8000C6F820C597F9303054F823305BB1890912
:108E9000032900F02581022A00F01F81032A02D154
:108EA000022900F01D8194F95200421C3DD0C0F30C
:108EB000C20204AB1A4400F0070312F80C2C05FAA6
:108EC00003F31A42C1B200F03F002ED0830003F139
:108ED000A04305FA00FCD3F80027D3F8007727F465
:108EE0004037C3F80077C2F30142D3F80077022A73
:108EF0000CBF4FF4403E4FF4003E4EEA070E2718D9
:108F0000C3F800E7C6F820C597F9303054F823308D
:108F10005BB18909032900F0DE80022A00F0D880C5
:108F2000032A02D1022900F0D68094F95300431C91
:108F30003DD0C0F3C20204AB1A4400F0070312F89C
:108F40000C2C05FA03F31A42C1B200F03F002ED0F8
:108F5000830003F1A04305FA00FCD3F80027D3F8FF
:108F6000007727F44037C3F80077C2F30142D3F803
:108F70000077022A0CBF4FF4403E4FF4003E4EEA09
:108F8000070E2718C3F800E7C6F820C597F9303058
:108F900054F823305BB18909032900F0A680022A26
:108FA00000F0A080032A02D1022900F09E80D6F8AA
:108FB00020350193C6F82035002B7FF4F0AE05B0C4
:108FC000F0BD104AD2F8042351067FF59DAE002271
:108FD0001A601B680293029B46F0400694E600BFAD
:108FE0000061004004610040086100400C610040E5
:108FF0001061004014610040186100401C61004095
:109000007C61004000600040603200203A4AD2F8A3
:10901000042390067FF573AE00221A601B6802934A
:10902000029B46F020066AE6334AD2F80423D406AF
:109030007FF560AE00221A601B680293029B46F027
:10904000100657E62C4AD2F8042315077FF54DAEDB
:1090500000221A601B680293029B46F0080644E651
:10906000254AD2F8042357077FF53AAE00221A604A
:109070001B680293029B46F0040631E61E4AD2F8B2
:10908000042392077FF527AE00221A601B68029323
:10909000029B46F002061EE61749D1F8046316F05B
:1090A00001063FF413AE136013680293029B0DE6B2
:1090B00000221A601B6803934FF0A043039AD3F871
:1090C00020250192C3F82025002E3FF464AE43E62C
:1090D00001297FF42AAF984727E701297FF4E3AEFF
:1090E0009847E0E601297FF462AF98475FE70129DE
:1090F0007FF497AE984794E600600040014B1B68F0
:10910000184700BFBC320020114B98421DD130B52A
:1091100083B000230DF107008DF807300D46FEF7F0
:10912000F1F90C4B1C794CB99DF807001D60012228
:109130001A71FEF70DFA204603B030BD9DF8070006
:10914000FEF706FA112003B030BD0020704700BFC3
:1091500000200040BC32002030B56E4AD2F8043303
:1091600099058BB068D5D2F82431002B64D0002348
:10917000C2F82431D2F8243101934FF40171664BC7
:109180000198C2F8081393F8291009B90121516018
:10919000604902228DF81820D1F88024C1F880247B
:1091A0009869D968099200240025CDE90710C3E920
:1091B0000645D3E9001206A89047564AD2F81C315A
:1091C000C3B1554B5869196A88426AD993F8281077
:1091D00001F0FF00002964D1C2F81C01D2F81C1173
:1091E000039103999C68186A196A205C013119621D
:1091F000C2F81C05474AD2F84431DBB10021464B86
:10920000C2F84411D2F8440193F829100090009854
:1092100009B1012111609A6962B1586AD9680022C6
:109220009A610122CDE907108DF8182006A8D3E92C
:10923000001290470BB030BD364AD2F804335B07BA
:10924000BBD5D2F80831002BB7D0334B9969002930
:109250003ED00021C2F80811D2F8081104910499F7
:10926000D868596AD2F8182542545A6A9969013265
:109270005A625A6A8A42A0D1DA69002A31D0DD687E
:109280005C6A18699A6101210022D860DA615A6229
:109290008DF81810CDE90754D3E9001206A89047BD
:1092A0008BE71C4A0021C2F81C11D2F81C21029243
:1092B000029A5A69002A9DD058699A688DF8181048
:1092C00008905961079206A8D3E90012904791E7E8
:1092D000C2F80811D2F8080105900598D2F81825AF
:1092E000C7E793F8292012B90A4A01215160094AB7
:1092F0004FF40171C2F80813596ADA680891002422
:10930000012007928DF81800D3E900129C6106A88D
:10931000904752E700200040C83200202DE9F0417C
:10932000624F06792C2303FB067382B093F82A3030
:10933000002B40F08D8005460C4600685C49904645
:10934000FFF7E2FE00287FD12368591C0CD00122D0
:109350004FF0A04102FA03F3C1F80835236803F582
:10936000E073032241F8232063685A1C06D003F5FA
:10937000E0734FF0A042002142F823102B68A2694D
:10938000C3F82425217D637D2A680B43C2F86C3520
:10939000D4E900122B68C3F81425C3F80C15237DFB
:1093A000012B61D02C2303FB06F3FA18C2F80480CA
:1093B0002269FA502A68B8F1000F33D00021237FC8
:1093C000C2F81C11D2F81C2100922A68DDF800C0F6
:1093D000C2F84411D2F844112A680191354C019920
:1093E000C2F804432A6842F3073100294FEA1232D7
:1093F00032DB01F1604101F561415B01DBB281F8D3
:1094000000332A6842F30733002B4FEA123109DB9D
:10941000294C01225B0901F01F0102FA01F144F815
:1094200023102A682C2303FB067601240023042141
:10943000C2F80015C6E9063386F82A4086F82930B6
:10944000736102B0BDE8F081112002B0BDE8F08187
:10945000082002B0BDE8F081184902F00F025B015C
:109460001144DBB20B76CCE7A368591C06D003F598
:10947000E0734FF0A042002142F82310E3685A1C29
:109480000DD001224FF0A04102FA03F3C1F80835D4
:10949000E36803F5E073032241F82320E3682A68B8
:1094A000A168C2F80835C2F810157BE7C832002061
:1094B000599102008000020000E100E0FCEC00E0B5
:1094C0002DE9F041314E05792C2303FB0563044659
:1094D000586984B000284CD15A619960186283F8A9
:1094E00028002268C2F81C01D2F81C1122680291DF
:1094F0000121029F91602268D3F808C0C2F81C01C4
:10950000D2F81C11019101991F6A196A1CF80770A1
:1095100001311962C2F81C755A6812B104B0BDE875
:10952000F0815F691A6A216897421BD9864602E07A
:1095300093F828200ABBD1F81C21002AF8D0C1F8E2
:109540001CE1D1F81C210392039AD3F820801A6AF7
:109550001CF8088001321A62C1F81C851A6A974209
:10956000E9D82168D1F81C31002BFBD00123CB6056
:1095700004E0112004B0BDE8F0810F202C2303FB90
:10958000056500236B6104B0BDE8F081C83200209E
:109590000379044A2C2101FB03235869003818BFC2
:1095A00001207047C8320020F0B4504F06792C23B8
:1095B00003FB067386B05D68044625B103684FF46B
:1095C0000170C3F808032C2303FB0673986990B15C
:1095D000D86900287CD11961DA612C2303FB06735A
:1095E0005A683AB323684FF40172C3F80423002089
:1095F00006B0F0BC704793F829509A61D960586260
:10960000D861002DE9D12368C3F82451D3F824216F
:1096100023680192019AC3F80851D3F808212368FE
:109620000292012202991A602C2303FB06735A68E6
:10963000002AD7D12168C1F84421D1F844210392EE
:10964000039A2268D2F82411D2F80851D2F84401C2
:1096500055B9002833D10029F4D02C2303FB06761A
:109660000023B3610320C3E70029F6D148BB996901
:10967000C2F8080181B1D2F8081104910499DD689B
:10968000596AD2F818256A545A6A996901325A629D
:109690005A6A9142D5D806E0D2F808110591059989
:1096A000D2F818255B6A2C2303FB0676002296F875
:1096B0002930B261A3B1236801221A6098E700291A
:1096C000CBD12C2303FB06760023B3610F208FE759
:1096D00055B123684FF40172C3F80423112087E7C2
:1096E000236801225A6083E7112081E7C8320020F5
:1096F00030B5574BD3F824218BB0002A75D0002207
:10970000C3F82421D3F82421049202228DF81820D2
:10971000049AD3F880144F4AC3F880140991D3F8FF
:109720003C15D3680891002400250793C2E906453B
:109730001168536806A89847454BD3F8442152B1A5
:109740000021444AC3F84411D3F8440191690390BD
:109750000398002938D13E4BD3F820215AB100217B
:10976000C3F82011D3F8202102920120394A029C2B
:10977000D8605069D8B9364BD3F85821AAB1002126
:10978000C3F85811D3F85801324A01900198506932
:1097900058B1D3F84C05936808908DF818105161B2
:1097A000079306A8D2E9001398470BB030BDD3F851
:1097B0004C05936808908DF818105161079306A81E
:1097C000D2E900139847D6E7D3F83C35D16808931F
:1097D00000240025012307918DF81830C2E90645C1
:1097E000D2E9001306A89847B5E7D3F8101100296D
:1097F000A2D0C3F81021D3F810111648059105998D
:109800008469D3F83C15A14296D1C469A4B1D3F8B8
:109810000052846125F02005C3F80052D0E90343CB
:10982000C26101220891C3600168436807948DF802
:10983000182006A898477FE7C26884610123CDE914
:1098400007218DF81830D0E9001306A8984773E770
:1098500000200040F83200202DE9F0430779704ED7
:1098600007EBC70306EB830387B093F82030002B88
:1098700040F0A78004460D4600686A499146FFF70C
:1098800043FC002840F099802B68591C4FEAC70818
:109890000CD001224FF0A04102FA03F3C1F80835C1
:1098A0002B6803F5E073032241F823206B685A1CF0
:1098B00006D003F5E0734FF0A042002142F82310D8
:1098C0002368A969C3F82415297D6A7D23680A43A2
:1098D000C3F86C25D5E900312268C2F80C35C2F80E
:1098E00014152B7D012B78D008EB070206EB8203C1
:1098F000C3F804902B6946F82230B9F1000F4BD021
:1099000021682B7F484D0022C1F81021D1F8101199
:1099100001912168DDF804C0C1F82021D1F820119F
:1099200002912168DDF808C0C1F82421D1F8241182
:1099300003912168DDF80CC0C1F84421D1F844112D
:1099400004912168DDF810C0C1F85821D1F85811F0
:10995000226805910599C2F80453226842F3073141
:1099600000294FEA123230DB01F1604101F561411B
:109970005B01DBB281F80033226842F30733002B2E
:109980004FEA123109DB294D01225B0901F01F0169
:1099900002FA01F145F823102268474406EB8706D6
:1099A000002301240821C2F80015C6E9063386F811
:1099B0002040736107B0BDE8F083112007B0BDE817
:1099C000F083082007B0BDE8F083194902F00F02C8
:1099D0005B011144DBB20B76CEE7AB68591C06D0B5
:1099E00003F5E0734FF0A042002142F82310EB682A
:1099F0005A1C0DD001224FF0A04102FA03F3C1F826
:109A00000835EB6803F5E073032241F82320EB6887
:109A10002268A968C2F80835C2F8101564E700BFCB
:109A2000F8320020F19602001003420000E100E04D
:109A3000FCEC00E0F0B401F06044B4F1005F82B0EF
:109A40002CD10579274E05EBC50406EB84040346AB
:109A50006069EF0000283ED16261A1601A68C2F817
:109A60002001D2F820C11A68CDF804C0DDF804C086
:109A7000C2F85801D2F8582100921A68DDF800C0E7
:109A8000D4F814C0C2F84415C2F848C51A680121B8
:109A90009160626832B102B0F0BC7047102002B031
:109AA000F0BC70471A6800E0C8B9D2F82011D2F8AB
:109AB00058010029F8D090B90121D1601B68D3F872
:109AC0005821002AFBD07B1906EB830300225A6140
:109AD00002B0F0BC7047112002B0F0BC70470F20FC
:109AE000F1E700BFF83200200379054A03EBC30316
:109AF00002EB83035869003818BF0120704700BF8C
:109B0000F832002001F06043B3F1005F5ED1F0B4A1
:109B10000479474D04EBC40605EB860682B07668EF
:109B2000E30026B107684FF4047CC7F808C3234458
:109B300005EB83039C694CBB9A61DC61D9600368C7
:109B4000C3F81041D3F8106103680196019EC3F871
:109B50004441D3F8444103680094009CC3F8341591
:109B6000C3F83825036801221A60047904EBC403A2
:109B700005EB8303E6005B6853B303684FF404729C
:109B8000C3F80423002002B0F0BC7047DC69002C4D
:109B900037D11961DA610368C3F81041D3F8106155
:109BA00003680196019EC3F84441D3F84441036819
:109BB0000094009CC3F83415C3F838250268D2F825
:109BC000003243F02003C2F80032CEE71020704785
:109BD000036801E0E9B910BBD3F81021D3F84411B0
:109BE000D3F82401002AF5D0344400284FF00003B4
:109BF00005EB840518BF0320994218BF0F20AB6105
:109C0000C1E796B103684FF40472C3F8042311202E
:109C1000B9E7344405EB84050F20AA61B3E7344467
:109C200005EB84050320A961ADE71120ABE700BF78
:109C3000F83200206DDF704772DF704773DF7047C6
:109C400074DF704776DF70477ADF70477CDF7047DC
:109C50007FDF70478FDF7047B1DF70473FDF7047AE
:109C6000014B01221A7070471D33002010B40E4BB7
:109C70001B787BB10D4B02221A700D4C0D481A78DF
:109C80000D49001BC00800045DF8044B40F00300C0
:109C9000FCF72CBE094B1B781BB1044B01221A7038
:109CA000EBE7024BE9E700BF1C330020222B00202A
:109CB00054EB02008CEB020040E2020098360020D8
:109CC000FDF736B9F0B5A5B03C220446002106A840
:109CD00003F05AFA40F201630222ADF81A308DF80F
:109CE0001820324B15AD002C3BD093F822308DF864
:109CF000023028464AF613433C220021ADF80030DA
:109D00006C4603F041FA0123ADF864301A944FF425
:109D1000A077274E324606A852F8041B02F072F8CC
:109D2000A0BBB168234A284602F06CF8002836D15F
:109D300018220021204603F027FA0125002322469D
:109D40001B491D4802974FF48074ADF80C30019305
:109D50008DF80050ADF81440FFF76EFF10BB25B032
:109D6000F0BD93F822308DF8023021464AF61243B6
:109D700028463C22ADF800306C4603F005FA01237A
:109D8000ADF864301A944FF4A067C2E7FDF7D0F83D
:109D9000B168084A284602F035F80028C8D0FDF717
:109DA000C7F8C5E7FDF7C4F825B0F0BD743400204E
:109DB000EC2A0020F82A0020FC2A002003783BB17E
:109DC000012B0CD00B490C4A01230B701370704708
:109DD00003795BB1012BFAD1074A1370704705482C
:109DE0000549064A03700B7013707047014B01223E
:109DF0001A7070479B3600209A3600209936002052
:109E0000012A30B403D0022A12D030BC7047114C62
:109E10001148124A12491370001B0023C0080B702E
:109E2000000430BC12780F4940F00300FCF75EBD1F
:109E300008490948094C0A4A401A0025C0082570FB
:109E40000004137030BC1278074940F00300FCF79F
:109E50004DBD00BF54EB02008CEB02001C33002010
:109E60009836002050E202006CE2020008B5037848
:109E700003B108BD054B3B211888FFF7E3FE00281E
:109E8000F7D0BDE80840FDF753B800BF202B0020F5
:109E900030B5037883B0042B10D8DFE803F0170344
:109EA000370F11001B481C4B1C49C01AC008000486
:109EB00040F00100FCF754FC01F010F803B030BD95
:109EC0000DF1070001F01AF803B030BD0DF10700E5
:109ED00001F014F8124C134922780B78124D9DF8BA
:109EE0000700E854122A03F10103DBB29ABF0132E2
:109EF000D2B21422132B0B7084BF00230B700A28DC
:109F00002270DBD1094B01221A70D7E70148024BBE
:109F10000749CAE78CEB020054EB020090E2020012
:109F20000D3400200C340020F83300209C37002032
:109F300084E2020070B59DF81050D52D00D970BD97
:109F40000F4E10481C460021D522317003F01CF939
:109F50002A4621460B48357003F008F90A4D0B4894
:109F60000B4C3378074A0B49401BC00801250004FD
:109F70002570BDE8704040F00300FCF787BD00BFCE
:109F8000F53300202033002054EB02008CEB02005C
:109F90001E3300209CE20200FCF7CABF70B50388A4
:109FA000212B84B004460FD80F2B19D9103B112B4D
:109FB00016D8DFE803F02544158415151515151579
:109FC000151515151515151B522B00F08280562BF3
:109FD00008D1A0881321FFF735FE08B1FCF7A8FFD0
:109FE00004B070BD3B2BF4D004B070BD002380885A
:109FF000ADF8083002A9FFF72DFE0028F0D0EDE7FC
:10A000003C4B3D483D493E4E3E4DC01AC008000401
:10A0100040F00300FCF7A4FB3B4AA1883B4B1180B6
:10A0200001221A703A4C3B4A3B48002333702B7094
:10A030002380137002F0A6FD0028D1D0CEE72D4B6F
:10A040002D4836492E4C334DC01AC008000440F04C
:10A050000300FCF785FB2D4B2A4A2D482A4901268F
:10A060001E700023237013704FF6FF7411220380BB
:10A070002B480C808DF804202B7003F0B5F828498C
:10A0800082B201A8FFF7E2FD70BB082202A80021FE
:10A0900003F07AF8234A4FF0C87302A8CDE90223EF
:10A0A000FFF7D2FD18BB204B1878FFF70BFE1F4BB4
:10A0B00001211878FFF7C2FD002891D08EE7124ADF
:10A0C0000023108885211A46FFF7C2FD002887D09B
:10A0D00084E70D4A0023108819461A46FFF7BCFD95
:10A0E00000283FF47DAF79E7FCF722FFCDE7FCF7CE
:10A0F0001FFFD8E754EB02008CEB0200B0E2020035
:10A100001C33002098360020202B0020222B00201A
:10A11000103400209635002068340020BCE2020094
:10A12000CCE202005000A0000E340020FC2A0020E7
:10A130002DE980484FF4804191B00020FCF798F958
:10A14000002840F0F082FCF783F9FDF7F3F80028CF
:10A1500040F01983C74AC8480121FDF721F90028BA
:10A1600040F00E834FF0A04203214FF48060C2F80C
:10A1700028174FF40073C2F80C054FF480754FF0A8
:10A1800000444FF08050C2F82417C2F80C35C2F8D2
:10A1900020170023C2F80C55C2F87C171B25C2F803
:10A1A0000C45C2F870171A24C2F80C054FF0CD60A8
:10A1B000C2F8783708A9C2F87437CDE908450A9083
:10A1C0000224AE4AAE48ADF82D308DF82F308DF810
:10A1D0002C4001F007FC002840F0CF82A948AA4D8E
:10A1E00001F07CFBA94B04930FCD08AC0FC495E89C
:10A1F0000300A74DA74A84E8030007234FF48074A7
:10A2000004A908A8CDE90654059400F0EBFD002848
:10A2100040F0B082FEF71CF9002840F0A88202F05E
:10A2200039FD002840F0A082002308A901200893EE
:10A2300002F00EFE002840F0948208A802F0E6FE2C
:10A24000002840F08B820120FFF708FD112392487F
:10A250008DF8103002F0C8FF8F4982B204A8FFF7D2
:10A26000F5FC002840F077820822002108A802F0BF
:10A270008BFF8A4B089308A84FF0C8730993FFF728
:10A28000E3FC002840F064828548002102F068FB6E
:10A29000002840F05A820023824A8348089304A988
:10A2A000CDE90933049202F05BFC002840F04A82B9
:10A2B0007E497F4A7F4B08917F4808A9CDE9092351
:10A2C00000F0A4FB002840F03A82DFF82CB29BF8A3
:10A2D0000000FFF7F7FC1C22002108A802F054FF41
:10A2E00000234FF4A030754A0893ADF82E308DF856
:10A2F0003030734B0A904FF4A024032108A8CDE915
:10A300000D2309948DF82C1002F0B0F8002840F0CD
:10A3100013826C4B01211878FFF790FC002840F065
:10A320000882002240F266616748FDF74FF86748EF
:10A3300000F018FC08A8FFF77DFC002840F0F6812B
:10A3400063489DF823409DF824109DF825209DF832
:10A3500026309DF821609DF82250C47081704270B3
:10A3600003704671057100F05DFC5A4A5A4B5B4917
:10A37000DFF888815A4FDFF80C91DFF884A19B1A2F
:10A38000DB081B0443F00303184608EE103AFCF701
:10A39000E7F900240025E6B20095012388F8005073
:10A3A0004FF0010C3D70314608AA48468DF820C098
:10A3B00001F0A4FA3B78042553B9FCF7A9F800286A
:10A3C00000F0E3803B78013D13B915F0FF05F4D1AF
:10A3D00098F80030002B00F0DB80FCF799F800289B
:10A3E000FBD101347F2CD5D106463E4B3E4C3F4835
:10A3F0001E701422314602F0C7FE2046344940F850
:10A40000046B082202F0B2FEDFF8F8902673384998
:10A41000DFF8F4A0DFF8F480364C18EE100AFCF7F1
:10A420009FF94FF0A0450396D5F810355A000AD58C
:10A43000D5F80435DA4302F4806203F48063C5F88A
:10A440000825C5F80C35D5F810359B000AD5D5F888
:10A450000435DA4302F4007203F40073C5F80825EA
:10A46000C5F80C3599F80030002B40F0B080BAF8F0
:10A4700000004DE0619C020090E30200BD9D0200DF
:10A4800094E3020098E3020078E30200983500208C
:10A490009C360020919E0200CCE202005000A000F9
:10A4A00054340020C19C0200683400206D9C0200DE
:10A4B000019E0200359F0200743400206D9E020050
:10A4C000999F0200FC2A0020002B0020D8E2020005
:10A4D000B834002054EB02008CEB0200F8E20200DA
:10A4E0009B3600200D340020C0340020F8330020BB
:10A4F00018E302001D3300200E340020993600209E
:10A500000CE302009C370020202B00201E3300208B
:10A510004FF6FF7398424CD09C4B1B7803F0FF0220
:10A520001746002B00F08B809BF800305BB1984BF6
:10A530001B78012B00F0CD80954B1B78022B02D1AC
:10A54000944A1E231380934A138801339BB21380CD
:10A5500013889BB21E2B03D98F4B1B78002B7ED008
:10A5600098F8003063BB237843B9FBF7D1FF00288C
:10A57000F9D1FDF783FF2378002BF6D0039B2370DE
:10A58000FBF7C6FF0028FBD14EE7FDF777FF19E781
:10A59000304600F017FB18EE100A22465146FCF731
:10A5A000A5F91AE79BF80030002B66D001238BF841
:10A5B0000030784B039A1A8098F80030002BD2D0E4
:10A5C000764800F0CFFA039B88F80030CBE7744A56
:10A5D0007449754F18EE100AFCF788F9734B7448EC
:10A5E0001E461B78C8220D3300213B7002F0CCFDC3
:10A5F000704F32786A496E4802F0B8FD039B3B7099
:10A6000033461422039E66481E70002102F0BCFDF2
:10A6100089F80060D5F80435DA4302F4807203F457
:10A620008073C5F80825C5F80C35BAF800004FF658
:10A63000FF739842B6D001238BF8003068E75E4B79
:10A640001B78002B3FF47FAF9BF800301BB1504BC1
:10A650001B78002B4ED14F4B039A1A8073E7BAF840
:10A6600000001321FFF7EEFA4B4A5449012318EE7C
:10A67000100A1370FCF774F872E7514B1878FFF763
:10A68000DFFA11234F488DF8103002F0ADFD4D492F
:10A6900082B204A8FFF7DAFA002841D1082200218B
:10A6A00008A802F071FD484B089308A84FF0C87342
:10A6B0000993FFF7C9FA80BB9BF80000FFF702FB84
:10A6C0003F4B01211878FFF7B9FA18BBBAF8000020
:10A6D000B1E7354B2E4F039E1B783C4A3C493E70F8
:10A6E00000F008FA3B498BF8006018EE100AFCF7FE
:10A6F00037F828E72C4B264E1B78344A34493770FC
:10A7000000F014FA34498BF8007018EE100AFCF7C8
:10A7100027F8A0E7FCF70CFCD8E7FCF709FCCBE72F
:10A72000FCF706FCBAE7FCF703FC0CE5FCF700FCC1
:10A7300006E6FCF7FDFBF4E5FCF7FAFBE9E5FCF7C0
:10A74000F7FBC2E5FCF7F4FBB2E5FCF7F1FBA2E591
:10A75000FCF7EEFB98E5FCF7EBFB85E5FCF7E8FB87
:10A7600071E5FCF7E5FB68E5FCF7E2FB5CE5FCF76F
:10A77000DFFB54E5FCF7DCFB4CE5FCF7D9FB2DE5F2
:10A78000FCF7D6FBEEE4FCF7D3FBE3E41C3300203C
:10A79000222B00201034002096350020203300208A
:10A7A000F833002028E30200953500200D34002006
:10A7B000CD3400200C3400209836002064E30200E1
:10A7C000FC2A0020CCE202005000A000C03400208F
:10A7D0007434002038E3020050E30200A8DF704721
:10A7E000AEDF704762DF704770B50388502B82B0D0
:10A7F00004460D4608D0572B1FD18B6BEBB18088D8
:10A8000002B0BDE870401847C3884A8D9A4225D0EF
:10A81000EA8C9A4213D06A8E9A422FD0EA8D9A42DD
:10A820000BD12E6C4EB1238A3BB1DBB20093A088D2
:10A83000294604F112030222B04702B070BD2E6C0B
:10A84000002EE8D0238A002BF7D0DBB20093A0883B
:10A85000294604F112030122B047EEE7CA6B002A31
:10A86000D6D0038A022BE8D1123001F0EDFED0B130
:10A870000123A088EC6B1A4629460FE0EA6B002AF8
:10A88000CCD0268A022ED8D104F1120001F0DCFED1
:10A8900078B1A088EC6B324629460123A44602B069
:10A8A000BDE87040604703462946A088EC6B012252
:10A8B000F4E703463246A088EC6B2946EEE700BF7A
:10A8C0002DE9F04101268CB041F60A030246054607
:10A8D00069463046ADF800308DF80260FFF77EFF24
:10A8E000034618B118460CB0BDE8F081444A07CAC7
:10A8F00001AC03C41946227004A8202202F044FCD3
:10A900009DF81D30A88C8DF8216042F6252243F079
:10A910000203ADF8102004A94FF0091701ACAA1CDE
:10A920008DF81D30CDE9057401F092FE0346002834
:10A93000D8D1DFF8D48098E8030020220190ADF848
:10A94000081004A8194602F01FFC9DF81D30A88CC1
:10A95000069443F0020342F6272C4FF0051705F149
:10A960000A0204A98DF81D308DF82160ADF810C0E1
:10A97000059701F06DFE03460028B3D198E8030067
:10A9800020222060ADF8081004A8194602F0FCFB54
:10A990009DF81D30A88C059743F0020342F6282C41
:10A9A00005F1120204A98DF81D3006948DF821607E
:10A9B000ADF810C001F04CFE0346002892D1114AB8
:10A9C00092E8030020222060ADF8081004A8194680
:10A9D00002F0DAFB9DF81D30059743F00203A88CC6
:10A9E0008DF81D3004A942F6292705F11A020694B4
:10A9F0008DF82160ADF8107001F02AFE034671E772
:10AA0000A4E30200B0E30200B8E302002DE9F04144
:10AA10000A6882634A68C2638B6803648EB0044626
:10AA2000FFF74EFF314B0FCB02AD85E80F002846F4
:10AA300004F12201FFF7D6FE10B10EB0BDE8F0819F
:10AA400094F822308DF8063004F124024AF61443BB
:10AA500001A90120ADF80430FFF7C0FE0028ECD1B9
:10AA60000146202206A802F08FFB214EBDF82430BB
:10AA700094F822208DF81A20334041F601052B432B
:10AA80004AF6164C4FF0D51840F20117A08CADF8DD
:10AA9000243006A904F12E02ADF818C0CDF81C80B0
:10AAA000ADF82A7001F0D4FD0028C6D1014620225D
:10AAB00006A802F069FBBDF8243094F822C0A08CEF
:10AAC000CDF81C801E4006A94AF61543354304F113
:10AAD0002602ADF82A70ADF82450ADF818308DF884
:10AAE0001AC001F0B5FD0EB0BDE8F081C0E3020070
:10AAF00000E7FFFF70B50E4686B00446154602A873
:10AB000010220021ADF8063002F03EFBF68C0595D0
:10AB100001220DF10603204602A9ADF808608DF868
:10AB20000A200493FFF75CFE06B070BD70B50E46B8
:10AB300086B00446154602A810220021ADF8063062
:10AB400002F022FBF68D059501220DF10603204649
:10AB500002A9ADF808608DF80A200493FFF740FEC3
:10AB600006B070BD38B5144D002104464FF4007294
:10AB70001248298002F008FB11491048224602F0D1
:10AB80000BFB80B2288060B10C4D01386C1C14FAAC
:10AB900080F4287800F0E0F90028FAD10135A542C8
:10ABA000F7D10D2000F0D8F90028FAD10A2000F0E2
:10ABB000D3F90028FAD138BDA0390020A0370020F1
:10ABC000D0E3020038B5144D002104464FF4007262
:10ABD0001248298002F0D8FA11491048224602F0A2
:10ABE000DBFA80B2288060B10C4D01386C1C14FA7D
:10ABF00080F4287800F0B0F90028FAD10135A54298
:10AC0000F7D10D2000F0A8F90028FAD10A2000F0B1
:10AC1000A3F90028FAD138BDA0390020A0370020C0
:10AC2000D8E302002DE9F041214E224D224F0021B0
:10AC300080464FF400723046298002F0A5FA1F4981
:10AC4000304602F0A9FA80B208F1FF34288008F1FA
:10AC5000070814F8012F3044394602F09DFA2B887A
:10AC6000184480B244452880F3D11549304402F09D
:10AC700093FA2B88184480B2288060B10C4C0138BC
:10AC8000651C15FA80F5207800F066F90028FAD1E5
:10AC90000134AC42F7D10D2000F05EF90028FAD162
:10ACA0000A2000F059F90028FAD1BDE8F08100BF70
:10ACB000A0370020A039002000E40200F0E30200E9
:10ACC00060DB020030B50478012C83B004D0022C84
:10ACD0002DD0ECB103B030BD037A002B3CD04368DB
:10ACE000364D1978284600F081F9002854D0344BAD
:10ACF00001901B688DF8004068469847A968EB688A
:10AD0000AA885B1A9A4227D22E4B01221A70E1E7D9
:10AD10002D492E4800F082F900282ED0284B03221E
:10AD20001B688DF800206846984703B030BD284B5B
:10AD3000284D1A78C168AA5C01918DF80040B2B91B
:10AD4000254903F10C000122FEF72EFC1C4B68463E
:10AD50001B68984703B030BD1D4B1E4A1B781E4927
:10AD6000D35C0122A3B11D48FEF7CCFEB2E71A491D
:10AD7000181D0122FEF7C6FEE8E71548154A0378BC
:10AD8000D35CA3B1104901220430FEF753FEA1E7C2
:10AD90001348FEF709FC9DE7AA68EB689A42ADD01C
:10ADA000074B8DF800001B6868469847A6E70649E0
:10ADB00001220C30FEF784FB8CE700BFA83900208D
:10ADC000A4390020B8390020D0390020BC39002037
:10ADD000242B0020203D0020CC390020282B0020EF
:10ADE000302B00202DE9F041334D8AB02A60002934
:10ADF00056D08A8880460D46304809681C4600F0C7
:10AE0000E5F810B10AB0BDE8F081AA89A9682C481C
:10AE100000F0DCF80028F5D12A4E98F810C02A4F2F
:10AE20000FCE02AD0FC596E80F0098F81160BCF187
:10AE3000000C85E80F0018BF4FF0010CD8F8043063
:10AE40000193002ED8F81430D8F808508DF824401B
:10AE500014BF0E220022D8F80C40D8F800608DF8FC
:10AE60001D200893194A019B8DF81CC002A9384681
:10AE7000CDE9044503960293FDF76EFE0028C1D18B
:10AE8000D8F80030124A01331070BBD0114A3B7819
:10AE9000D35C4BB11049381D0122FEF733FEB1E7F8
:10AEA00007200AB0BDE8F0810B4907F10C00012230
:10AEB000FEF77AFBA6E700BFA4390020A8390020DE
:10AEC000BC39002008E40200242B0020C5AC02009D
:10AED000B8390020203D0020CC39002008B50548B5
:10AEE00000F0B2F800B108BDBDE80840024800F02B
:10AEF000ABB800BFA8390020BC39002070B5114D97
:10AF0000014611482E7800F089F804460EB9204613
:10AF100070BD0E480E4A0378D35C00222A7053B1EC
:10AF20000C4904300122FEF7EDFD0028EFD0FBF7BD
:10AF3000FFFF204670BD074901220C30FEF734FBAD
:10AF4000F3E700BFB8390020A8390020242B0020E7
:10AF5000203D0020CC39002070B50146154800F096
:10AF600045F8044608B1204670BD134D134E2B78AA
:10AF7000F35CA3B1281DFEF7B7FD0028F3D11049FB
:10AF80000C4800F04BF80028EDD12B780C49F35C0D
:10AF900001224BB1BDE870400A48FEF74BBD05F1F8
:10AFA0000C00FEF7F5FAE8E7BDE870400648FEF74A
:10AFB00087BA00BFBC390020242B0020203D002090
:10AFC000D0390020282B0020302B002059B142B16D
:10AFD000531E1A4005D1826001608380C260104612
:10AFE0007047092070470E20704700BF10B4846876
:10AFF000C26803468088121B904203D204205DF889
:10B00000044B7047DA681C6802400020A154DA68DB
:10B010000132DA605DF8044B704700BF0346806878
:10B02000DA6890420DD010B498689A881C68024083
:10B030000020A25C0A709A6801329A605DF8044BA5
:10B0400070470520704700BF03460020DA689A6009
:10B05000704700BFF0B58FB0A94B00930023C0F834
:10B060000431D0F804210492049AC0F82431D0F8B5
:10B0700024210392039AC0F81C31D0F81C210292BB
:10B08000029AC0F80831D0F8082101920122019CEF
:10B09000C0F800324B6381F82F30026291F82D30F6
:10B0A000934218BF82604B6B8A6A93420FD24A6AFE
:10B0B000D35CC0F81C350A68E2B140F286238B608D
:10B0C0008B68C0F80433002318460FB0F0BD91F828
:10B0D0002C30002B40F0C2800B6A13F0400F4FF071
:10B0E000010314BFC36143610A6818BF81F82D30A2
:10B0F000002AE2D1009B002B28DD01264FF0020E32
:10B10000D0F8043133B1C0F80421D0F804310D93E4
:10B110000D9B012391F82F4034B3C0F82421D0F8BF
:10B1200024410A940A9CC0F81C21D0F81C410B94BD
:10B130000B9CC0F80821D0F808410C940C9C0BBB68
:10B14000009B013B0093009B002BD9DC91F82F3032
:10B15000F3B9009A002AB7DC00230522C0F80035B5
:10B160000323C0F80025AFE7D0F8245155B3C0F849
:10B170002441D0F824410994099C466181F82F604C
:10B18000002BDDD091F82F30002281F82D20ABB3B9
:10B19000D0F8C424C0F8C424002A41D012F0010F12
:10B1A00018BF4FF4024348F2012108BF032312F0F5
:10B1B000020F18BF0B4648F2022112F0040F18BF0D
:10B1C0000B46C6E7D0F81C418CB3C0F81C51D0F830
:10B1D0001C4108944C6BDDF820C001344C63D0F85E
:10B1E00024C1BCF1000F3CD0C0F82451D0F8244158
:10B1F0000794079C466181F82F60A0E74C6B8A6A30
:10B200009442A6D001220524C0F80035C0F80045BC
:10B2100081F82F20D0F8C424C0F8C424002ABDD15E
:10B22000009A002A4FF003033FF74EAF94E7D0F89F
:10B230000851002D83D0C0F80841D0F80851069578
:10B24000069DD0F82451A5B1C0F82441D0F824417E
:10B250000594059C466181F82F6070E70123C36166
:10B2600029E78D6AAC421AD24D6A2C5DC0F81C45A4
:10B2700065E74C6B8D6AAC42BFF461AF4F6AD0F8A2
:10B2800018553D554C6BD1F828C001340CF1FF35F1
:10B29000AC424C631DD0644521D006624FE791F863
:10B2A0002C4024B90C6A670609D4466147E701239C
:10B2B000C36191F82F30002B3FF44BAF68E70122B8
:10B2C000C26191F82F3081F82D20002B3FF441AF5F
:10B2D0005EE70D6A6D060FD4C0F800E2DDE70C6A88
:10B2E00064067FF52CAF022381F82D3091F82F30C2
:10B2F000002B3FF42EAF4BE76445CED1F3E700BF00
:10B30000A0860100F0B58FB09F4B00930023C0F8DA
:10B310000431D0F804210492049AC0F82431D0F802
:10B3200024210392039AC0F81C31D0F81C21029208
:10B33000029AC0F808318A6AD0F808410194012ABB
:10B34000019C4B6381F82F3015D00123C0F80032E7
:10B350000123036291F82D20022A18BF03600A68B6
:10B3600082B140F286238B608B68C0F804330023DF
:10B3700018460FB0F0BD0B6A5B06E6D40223C0F896
:10B380000032E5E7009B002B28DD01264FF0020E7E
:10B39000D0F8043133B1C0F80421D0F804310D9352
:10B3A0000D9B012391F82F4034B3C0F82421D0F82D
:10B3B00024410A940A9CC0F81C21D0F81C410B942B
:10B3C0000B9CC0F80821D0F808410C940C9C0BBBD6
:10B3D000009B013B0093009B002BD9DC91F82F30A0
:10B3E000F3B9009A002AC3DC00230522C0F8003517
:10B3F0000323C0F80025BBE7D0F8245155B3C0F8AB
:10B400002441D0F824410994099C466181F82F60B9
:10B41000002BDDD091F82F30002281F82D20ABB326
:10B42000D0F8C424C0F8C424002A41D012F0010F7F
:10B4300018BF4FF4024348F2012108BF032312F062
:10B44000020F18BF0B4648F2022112F0040F18BF7A
:10B450000B46C6E7D0F81C418CB3C0F81C51D0F89D
:10B460001C4108944C6BDDF820C001344C63D0F8CB
:10B4700024C1BCF1000F39D0C0F82451D0F82441C8
:10B480000794079C466181F82F60A0E74C6B8A6A9D
:10B490009442A6D001220524C0F80035C0F800452A
:10B4A00081F82F20D0F8C424C0F8C424002ABDD1CC
:10B4B000009A002A4FF003033FF75AAF94E7D0F801
:10B4C0000851002D83D0C0F80841D0F808510695E6
:10B4D000069DD0F824518DB1C0F82441D0F8244104
:10B4E0000594059C466181F82F6070E78D6AAC4237
:10B4F0001AD24D6A2C5DC0F81C4568E74C6B8D6A0A
:10B50000AC42BFF464AF4F6AD0F818553D554C6B50
:10B51000D1F828C001340CF1FF35AC424C631DD08A
:10B52000644521D0066252E791F82C4024B90C6A98
:10B53000670609D446614AE70123C36191F82F30B9
:10B54000002B3FF44EAF6BE70122C26191F82F3020
:10B5500081F82D20002B3FF444AF61E70D6A6D06A2
:10B560000FD4C0F800E2DDE70C6A64067FF52FAF68
:10B57000022381F82D3091F82F30002B3FF431AFAA
:10B580004EE76445CED1F3E7A0860100F0B58C4BC1
:10B59000D3F8042191B03AB10022C3F80421D3F8C2
:10B5A00004310993099B0122864C854B94F82F1096
:10B5B000A9B10021C3F82411D3F8240106900698FC
:10B5C000C3F81C11D3F81C0107900798C3F80811A1
:10B5D000D3F808310893089B8AB911B0F0BDD3F8AD
:10B5E0002401002839D0C3F82411D3F8241105917F
:10B5F0000121059884F82F105961002AEDD094F8A4
:10B600002F30002284F82D2063B9616BA26A914229
:10B610005DD06B4A05210120C2F8003584F82F0067
:10B62000C2F80015684E664F0FCE0BAD0FC53368DC
:10B630002B60D7F8C434C7F8C4349A0728D4580705
:10B6400070D502238DF82830002384F83030D4E9F7
:10B6500000310AA8984711B0F0BDD3F81C11D9B138
:10B66000C3F81C01D3F81C110491616B049DD3F83D
:10B67000245101316163002D71D0C3F82401D3F846
:10B68000241103910121039884F82F105961A3E735
:10B6900001238DF82830D7E7D3F8080100289BD084
:10B6A000C3F80811D3F8080102900298D3F82401D6
:10B6B00000283ED0C3F82411D3F8241101910121B0
:10B6C000019884F82F10596186E70122DA61237B03
:10B6D0009A1E012A0FD93C4E276A0FCE0BAD0FC51B
:10B6E00033682B6000238DF8283084F830307B07D6
:10B6F000ADD511B0F0BD616AA2699142EBD1D4E938
:10B70000071260696162C2F340120021032BA0623C
:10B7100084F82D102A482B4984F82C2031D0FFF7CB
:10B72000F1FD5AE7D9074CBF032304238DF82830D5
:10B730008AE7616BA06A8142BFF44EAF606AD3F8BA
:10B7400018554554616BA06A0131451EA9426163D9
:10B750001FD0814224D01A4B012119623CE7A06A14
:10B76000814204D2606A415CC3F81C1534E794F846
:10B770002C100029A9D1216A4F0605D40121596155
:10B780002AE7FFF767FC28E70122DA6184F82D2019
:10B790009DE7256A6E060FD40221C3F80012DAE78E
:10B7A000236A5D067FF518AF94F82F30022284F8E3
:10B7B0002D20002B8BD035E78142CCD1F4E700BFA0
:10B7C00000300040D4390020E03900202DE9F04F4E
:10B7D0000779DFF804910546C7EB071009EB8006EF
:10B7E00083B096F82EC09B463B010193BCF1000F3D
:10B7F0005CD10C464FEA8008344928689246FDF730
:10B8000083FC00285ED149F808A0B060C6F804B0F7
:10B8100086F8300086F82D0086F83100627B86F8C5
:10B82000382022684FF0A04102F5E07240F20C6629
:10B8300041F82260626802F5E07241F82260D4E9C2
:10B8400000262968019BC1F80825C1F80C65A2688B
:10B85000C1F82425BAF1000F1FD02968227B41F3DB
:10B860000734002C4FEA113124DB04F1604404F565
:10B8700061445201D2B284F800232A6842F30731AE
:10B8800000294FEA123208DB114D0124490902F068
:10B890001F0204FA02F245F82120DF1B09EB87079B
:10B8A000012387F82E3003B0BDE8F08F082003B0E5
:10B8B000BDE8F08F074C01F00F0152010C44D2B2E9
:10B8C0002276DAE7112003B0BDE8F08F8DB50200D3
:10B8D00000E100E0FCEC00E0D43900200379064AE6
:10B8E0000168C3EB031302EB83030220052283F8F4
:10B8F0002E00C1F800257047D43900202DE9F84FFB
:10B900000479264F9DF828800068C4EB041607EBE5
:10B910008605B8F1000F95F82DE08C4614BF202164
:10B920000021BEF1020F2CD0DFF874E0C0F808E36C
:10B9300095F830E00EF0FF09BEF1000F28D1C4EBFE
:10B940000414A40004F10C0A07EB0A0EB6004FF031
:10B95000010B296285F830B0391907F80A90CEE951
:10B960000139CEE903298EF801C0C5E90923C0F8E1
:10B9700088C585F82C80FFF76DFBBB5923B1BDE866
:10B98000F88F0820BDE8F88F85F83030BDE8F88FD3
:10B99000AB68C0F804331120BDE8F88FD43900201B
:10B9A0008642040030B585B0047885888DF8004063
:10B9B0008468ADF804508DF80640C568074A084B06
:10B9C0008DF80750D0E9040453F8213052F82110C3
:10B9D000CDE902046846984705B030BD103A002012
:10B9E000183A00202DE9F04F3B4E90F800800746B2
:10B9F0000C463A48497B46F8282040F8283081B068
:10BA0000154661B9364A002D4346214607F1040028
:10BA100008BF2A4601B0BDE8F04FFFF7D7BE236844
:10BA2000304A4FF0A04603F5E07340F20C6146F84F
:10BA30002310636803F5E0734FF0010946F8231003
:10BA4000236809FA03F3C6F80835636809FA03F3B3
:10BA5000C6F80835236803F5E07340F20D6146F837
:10BA60002310636803F5E07342EA090A46F82310DD
:10BA70004FF48070D0474FF0000B6268D6F8103555
:10BA8000D340DB074FF4807022D4236809FA03F314
:10BA9000C6F80C35D047236809FA03F30BF1010B04
:10BAA000C6F808354FF48070D047BBF1090FE4D1D8
:10BAB000626801264FF0A04906FA02F2C9F80C2587
:10BAC0004FF48070D04763689E40C9F8086599E7D5
:10BAD000BBF1000FEDD195E7183A0020103A002095
